{
  "_format": "hh-sol-artifact-1",
  "contractName": "VotingSystem",
  "sourceName": "contracts/VotingSystem.sol",
  "abi": [
    {
      "inputs": [],
      "stateMutability": "nonpayable",
      "type": "constructor"
    },
    {
      "anonymous": false,
      "inputs": [
        {
          "indexed": true,
          "internalType": "uint256",
          "name": "candidateId",
          "type": "uint256"
        },
        {
          "indexed": false,
          "internalType": "string",
          "name": "name",
          "type": "string"
        }
      ],
      "name": "CandidateAdded",
      "type": "event"
    },
    {
      "anonymous": false,
      "inputs": [
        {
          "indexed": true,
          "internalType": "address",
          "name": "previousOwner",
          "type": "address"
        },
        {
          "indexed": true,
          "internalType": "address",
          "name": "newOwner",
          "type": "address"
        }
      ],
      "name": "OwnershipTransferred",
      "type": "event"
    },
    {
      "anonymous": false,
      "inputs": [
        {
          "indexed": true,
          "internalType": "address",
          "name": "voter",
          "type": "address"
        },
        {
          "indexed": true,
          "internalType": "uint256",
          "name": "candidateId",
          "type": "uint256"
        }
      ],
      "name": "VoteCast",
      "type": "event"
    },
    {
      "anonymous": false,
      "inputs": [
        {
          "indexed": true,
          "internalType": "address",
          "name": "voter",
          "type": "address"
        }
      ],
      "name": "VoterRegistered",
      "type": "event"
    },
    {
      "anonymous": false,
      "inputs": [],
      "name": "VotingEnded",
      "type": "event"
    },
    {
      "anonymous": false,
      "inputs": [],
      "name": "VotingStarted",
      "type": "event"
    },
    {
      "inputs": [
        {
          "internalType": "string",
          "name": "_name",
          "type": "string"
        }
      ],
      "name": "addCandidate",
      "outputs": [],
      "stateMutability": "nonpayable",
      "type": "function"
    },
    {
      "inputs": [
        {
          "internalType": "uint256",
          "name": "",
          "type": "uint256"
        }
      ],
      "name": "candidates",
      "outputs": [
        {
          "internalType": "uint256",
          "name": "id",
          "type": "uint256"
        },
        {
          "internalType": "string",
          "name": "name",
          "type": "string"
        },
        {
          "internalType": "uint256",
          "name": "voteCount",
          "type": "uint256"
        },
        {
          "internalType": "bool",
          "name": "exists",
          "type": "bool"
        }
      ],
      "stateMutability": "view",
      "type": "function"
    },
    {
      "inputs": [],
      "name": "candidatesCount",
      "outputs": [
        {
          "internalType": "uint256",
          "name": "",
          "type": "uint256"
        }
      ],
      "stateMutability": "view",
      "type": "function"
    },
    {
      "inputs": [],
      "name": "endVoting",
      "outputs": [],
      "stateMutability": "nonpayable",
      "type": "function"
    },
    {
      "inputs": [],
      "name": "getAllCandidates",
      "outputs": [
        {
          "internalType": "uint256[]",
          "name": "ids",
          "type": "uint256[]"
        },
        {
          "internalType": "string[]",
          "name": "names",
          "type": "string[]"
        },
        {
          "internalType": "uint256[]",
          "name": "voteCounts",
          "type": "uint256[]"
        }
      ],
      "stateMutability": "view",
      "type": "function"
    },
    {
      "inputs": [
        {
          "internalType": "uint256",
          "name": "_candidateId",
          "type": "uint256"
        }
      ],
      "name": "getCandidate",
      "outputs": [
        {
          "internalType": "uint256",
          "name": "id",
          "type": "uint256"
        },
        {
          "internalType": "string",
          "name": "name",
          "type": "string"
        },
        {
          "internalType": "uint256",
          "name": "voteCount",
          "type": "uint256"
        }
      ],
      "stateMutability": "view",
      "type": "function"
    },
    {
      "inputs": [],
      "name": "getVotingStatus",
      "outputs": [
        {
          "internalType": "bool",
          "name": "isActive",
          "type": "bool"
        },
        {
          "internalType": "uint256",
          "name": "totalCandidates",
          "type": "uint256"
        },
        {
          "internalType": "uint256",
          "name": "totalVotesCast",
          "type": "uint256"
        }
      ],
      "stateMutability": "view",
      "type": "function"
    },
    {
      "inputs": [],
      "name": "getWinner",
      "outputs": [
        {
          "internalType": "uint256",
          "name": "winnerId",
          "type": "uint256"
        },
        {
          "internalType": "string",
          "name": "winnerName",
          "type": "string"
        },
        {
          "internalType": "uint256",
          "name": "winnerVoteCount",
          "type": "uint256"
        }
      ],
      "stateMutability": "view",
      "type": "function"
    },
    {
      "inputs": [
        {
          "internalType": "address",
          "name": "_voter",
          "type": "address"
        }
      ],
      "name": "hasVoterVoted",
      "outputs": [
        {
          "internalType": "bool",
          "name": "",
          "type": "bool"
        }
      ],
      "stateMutability": "view",
      "type": "function"
    },
    {
      "inputs": [
        {
          "internalType": "address",
          "name": "_voter",
          "type": "address"
        }
      ],
      "name": "isVoterRegistered",
      "outputs": [
        {
          "internalType": "bool",
          "name": "",
          "type": "bool"
        }
      ],
      "stateMutability": "view",
      "type": "function"
    },
    {
      "inputs": [],
      "name": "owner",
      "outputs": [
        {
          "internalType": "address",
          "name": "",
          "type": "address"
        }
      ],
      "stateMutability": "view",
      "type": "function"
    },
    {
      "inputs": [
        {
          "internalType": "address",
          "name": "_voter",
          "type": "address"
        }
      ],
      "name": "registerVoter",
      "outputs": [],
      "stateMutability": "nonpayable",
      "type": "function"
    },
    {
      "inputs": [],
      "name": "renounceOwnership",
      "outputs": [],
      "stateMutability": "nonpayable",
      "type": "function"
    },
    {
      "inputs": [],
      "name": "startVoting",
      "outputs": [],
      "stateMutability": "nonpayable",
      "type": "function"
    },
    {
      "inputs": [],
      "name": "totalVotes",
      "outputs": [
        {
          "internalType": "uint256",
          "name": "",
          "type": "uint256"
        }
      ],
      "stateMutability": "view",
      "type": "function"
    },
    {
      "inputs": [
        {
          "internalType": "address",
          "name": "newOwner",
          "type": "address"
        }
      ],
      "name": "transferOwnership",
      "outputs": [],
      "stateMutability": "nonpayable",
      "type": "function"
    },
    {
      "inputs": [
        {
          "internalType": "uint256",
          "name": "_candidateId",
          "type": "uint256"
        }
      ],
      "name": "vote",
      "outputs": [],
      "stateMutability": "nonpayable",
      "type": "function"
    },
    {
      "inputs": [
        {
          "internalType": "address",
          "name": "",
          "type": "address"
        }
      ],
      "name": "voters",
      "outputs": [
        {
          "internalType": "bool",
          "name": "isRegistered",
          "type": "bool"
        },
        {
          "internalType": "bool",
          "name": "hasVoted",
          "type": "bool"
        },
        {
          "internalType": "uint256",
          "name": "votedCandidateId",
          "type": "uint256"
        }
      ],
      "stateMutability": "view",
      "type": "function"
    },
    {
      "inputs": [],
      "name": "votingActive",
      "outputs": [
        {
          "internalType": "bool",
          "name": "",
          "type": "bool"
        }
      ],
      "stateMutability": "view",
      "type": "function"
    }
  ],
  "bytecode": "0x608060405234801561001057600080fd5b5061001a3361002d565b600180556006805460ff1916905561007d565b600080546001600160a01b038381166001600160a01b0319831681178455604051919092169283917f8be0079c531659141344cd1fd0a4f28419497f9722a3daafe3b4186f6b6457e09190a35050565b6116128061008c6000396000f3fe608060405234801561001057600080fd5b50600436106101215760003560e01c8063462e91ec116100ad578063a3ec138d11610071578063a3ec138d1461025c578063c3403ddf146102ad578063eb2119db146102b5578063f2fde38b146102e1578063fd11f97a146102f457600080fd5b8063462e91ec146101f4578063581c281c14610207578063715018a6146102315780638da5cb5b146102395780638e7ea5b21461025457600080fd5b80632e6997fe116100f45780632e6997fe146101685780633477ee2e1461017f57806335b8e820146101a257806338db6dd3146101c4578063408e2727146101d757600080fd5b80630121b93f146101265780630d15fd771461013b5780631ec6b60a146101575780632d35a8a21461015f575b600080fd5b6101396101343660046111b2565b610325565b005b61014460055481565b6040519081526020015b60405180910390f35b610139610579565b61014460045481565b610170610658565b60405161014e9392919061124c565b61019261018d3660046111b2565b6108bc565b60405161014e94939291906112d1565b6101b56101b03660046111b2565b610971565b60405161014e93929190611302565b6101396101d236600461132b565b610b18565b6006546101e49060ff1681565b604051901515815260200161014e565b610139610202366004611371565b610c15565b6006546004546005546040805160ff9094161515845260208401929092529082015260600161014e565b610139610d97565b6000546040516001600160a01b03909116815260200161014e565b6101b5610dab565b61029061026a36600461132b565b6002602052600090815260409020805460019091015460ff808316926101009004169083565b60408051931515845291151560208401529082015260600161014e565b610139610fb3565b6101e46102c336600461132b565b6001600160a01b031660009081526002602052604090205460ff1690565b6101396102ef36600461132b565b611039565b6101e461030236600461132b565b6001600160a01b0316600090815260026020526040902054610100900460ff1690565b3360009081526002602052604090205460ff166103895760405162461bcd60e51b815260206004820152601e60248201527f596f7520617265206e6f74207265676973746572656420746f20766f7465000060448201526064015b60405180910390fd5b60065460ff166103d25760405162461bcd60e51b8152602060048201526014602482015273566f74696e67206973206e6f742061637469766560601b6044820152606401610380565b33600090815260026020526040902054610100900460ff16156104305760405162461bcd60e51b8152602060048201526016602482015275165bdd481a185d9948185b1c9958591e481d9bdd195960521b6044820152606401610380565b6104386110af565b60008111801561044a57506004548111155b61048d5760405162461bcd60e51b8152602060048201526014602482015273125b9d985b1a590818d85b991a59185d1948125160621b6044820152606401610380565b6000818152600360208190526040909120015460ff166104ea5760405162461bcd60e51b815260206004820152601860248201527710d85b991a59185d1948191bd95cc81b9bdd08195e1a5cdd60421b6044820152606401610380565b336000908152600260208181526040808420805461ff001916610100178155600101859055848452600390915282200180549161052683611438565b90915550506005805490600061053b83611438565b9091555050604051819033907fa36cc2bebb74db33e9f88110a07ef56e1b31b24b4c4f51b54b1664266e29f45b90600090a361057660018055565b50565b610581611108565b60065460ff16156105d45760405162461bcd60e51b815260206004820152601860248201527f566f74696e6720697320616c72656164792061637469766500000000000000006044820152606401610380565b6000600454116106205760405162461bcd60e51b81526020600482015260176024820152764e6f2063616e6469646174657320617661696c61626c6560481b6044820152606401610380565b6006805460ff191660011790556040517f877e2548498f42b7975a186b94ef1d32c86d420b7b806dd2be2bea293b89590490600090a1565b606080606060045467ffffffffffffffff8111156106785761067861135b565b6040519080825280602002602001820160405280156106a1578160200160208202803683370190505b50925060045467ffffffffffffffff8111156106bf576106bf61135b565b6040519080825280602002602001820160405280156106f257816020015b60608152602001906001900390816106dd5790505b50915060045467ffffffffffffffff8111156107105761071061135b565b604051908082528060200260200182016040528015610739578160200160208202803683370190505b50905060015b60045481116108b6576000818152600360208190526040909120015460ff16156108a4576000818152600360205260409020548461077e600184611451565b8151811061078e5761078e61146a565b6020026020010181815250506003600082815260200190815260200160002060010180546107bb90611480565b80601f01602080910402602001604051908101604052809291908181526020018280546107e790611480565b80156108345780601f1061080957610100808354040283529160200191610834565b820191906000526020600020905b81548152906001019060200180831161081757829003601f168201915b5050505050836001836108479190611451565b815181106108575761085761146a565b60200260200101819052506003600082815260200190815260200160002060020154826001836108879190611451565b815181106108975761089761146a565b6020026020010181815250505b806108ae81611438565b91505061073f565b50909192565b600360205260009081526040902080546001820180549192916108de90611480565b80601f016020809104026020016040519081016040528092919081815260200182805461090a90611480565b80156109575780601f1061092c57610100808354040283529160200191610957565b820191906000526020600020905b81548152906001019060200180831161093a57829003601f168201915b50505050600283015460039093015491929160ff16905084565b600060606000808411801561098857506004548411155b6109cb5760405162461bcd60e51b8152602060048201526014602482015273125b9d985b1a590818d85b991a59185d1948125160621b6044820152606401610380565b6000848152600360208190526040909120015460ff16610a285760405162461bcd60e51b815260206004820152601860248201527710d85b991a59185d1948191bd95cc81b9bdd08195e1a5cdd60421b6044820152606401610380565b60006003600086815260200190815260200160002060405180608001604052908160008201548152602001600182018054610a6290611480565b80601f0160208091040260200160405190810160405280929190818152602001828054610a8e90611480565b8015610adb5780601f10610ab057610100808354040283529160200191610adb565b820191906000526020600020905b815481529060010190602001808311610abe57829003601f168201915b5050509183525050600282015460208083019190915260039092015460ff1615156040918201528251918301519201519097919650945092505050565b610b20611108565b6001600160a01b03811660009081526002602052604090205460ff1615610b895760405162461bcd60e51b815260206004820152601b60248201527f566f74657220697320616c7265616479207265676973746572656400000000006044820152606401610380565b604080516060810182526001808252600060208084018281528486018381526001600160a01b038816808552600290935286842095518654925161ffff1990931690151561ff001916176101009215159290920291909117855551939092019290925591517fb6be2187d059cc2a55fe29e0e503b566e1e0f8c8780096e185429350acffd3dd9190a250565b610c1d611108565b6000815111610c6e5760405162461bcd60e51b815260206004820152601e60248201527f43616e646964617465206e616d652063616e6e6f7420626520656d70747900006044820152606401610380565b60065460ff1615610cd45760405162461bcd60e51b815260206004820152602a60248201527f43616e6e6f74206164642063616e6469646174657320647572696e672061637460448201526969766520766f74696e6760b01b6064820152608401610380565b60048054906000610ce483611438565b90915550506040805160808101825260045480825260208083018581526000848601819052600160608601819052938152600390925293902082518155925191929190820190610d349082611509565b5060408281015160028301556060909201516003909101805460ff191691151591909117905560045490517fe83b2a43e7e82d975c8a0a6d2f045153c869e111136a34d1889ab7b598e396a390610d8c9084906115c9565b60405180910390a250565b610d9f611108565b610da96000611162565b565b600654600090606090829060ff1615610dff5760405162461bcd60e51b8152602060048201526016602482015275566f74696e67206973207374696c6c2061637469766560501b6044820152606401610380565b600060045411610e4b5760405162461bcd60e51b81526020600482015260176024820152764e6f2063616e6469646174657320617661696c61626c6560481b6044820152606401610380565b60008060015b6004548111610ebb576000818152600360208190526040909120015460ff168015610e8c575060008181526003602052604090206002015483105b15610ea95760008181526003602052604090206002015492509050805b80610eb381611438565b915050610e51565b5060008111610efe5760405162461bcd60e51b815260206004820152600f60248201526e139bc81dda5b9b995c88199bdd5b99608a1b6044820152606401610380565b60008181526003602052604090206002810154600190910180548392908290610f2690611480565b80601f0160208091040260200160405190810160405280929190818152602001828054610f5290611480565b8015610f9f5780601f10610f7457610100808354040283529160200191610f9f565b820191906000526020600020905b815481529060010190602001808311610f8257829003601f168201915b505050505091509450945094505050909192565b610fbb611108565b60065460ff166110045760405162461bcd60e51b8152602060048201526014602482015273566f74696e67206973206e6f742061637469766560601b6044820152606401610380565b6006805460ff191690556040517f7a19ed057db79e3c2fa0b97a54b43bef4fce74b31bb6c01af514b9a18a7f70ab90600090a1565b611041611108565b6001600160a01b0381166110a65760405162461bcd60e51b815260206004820152602660248201527f4f776e61626c653a206e6577206f776e657220697320746865207a65726f206160448201526564647265737360d01b6064820152608401610380565b61057681611162565b6002600154036111015760405162461bcd60e51b815260206004820152601f60248201527f5265656e7472616e637947756172643a207265656e7472616e742063616c6c006044820152606401610380565b6002600155565b6000546001600160a01b03163314610da95760405162461bcd60e51b815260206004820181905260248201527f4f776e61626c653a2063616c6c6572206973206e6f7420746865206f776e65726044820152606401610380565b600080546001600160a01b038381166001600160a01b0319831681178455604051919092169283917f8be0079c531659141344cd1fd0a4f28419497f9722a3daafe3b4186f6b6457e09190a35050565b6000602082840312156111c457600080fd5b5035919050565b600081518084526020808501945080840160005b838110156111fb578151875295820195908201906001016111df565b509495945050505050565b6000815180845260005b8181101561122c57602081850181015186830182015201611210565b506000602082860101526020601f19601f83011685010191505092915050565b60608152600061125f60608301866111cb565b6020838203818501528186518084528284019150828160051b85010183890160005b838110156112af57601f1987840301855261129d838351611206565b94860194925090850190600101611281565b505086810360408801526112c381896111cb565b9a9950505050505050505050565b8481526080602082015260006112ea6080830186611206565b60408301949094525090151560609091015292915050565b83815260606020820152600061131b6060830185611206565b9050826040830152949350505050565b60006020828403121561133d57600080fd5b81356001600160a01b038116811461135457600080fd5b9392505050565b634e487b7160e01b600052604160045260246000fd5b60006020828403121561138357600080fd5b813567ffffffffffffffff8082111561139b57600080fd5b818401915084601f8301126113af57600080fd5b8135818111156113c1576113c161135b565b604051601f8201601f19908116603f011681019083821181831017156113e9576113e961135b565b8160405282815287602084870101111561140257600080fd5b826020860160208301376000928101602001929092525095945050505050565b634e487b7160e01b600052601160045260246000fd5b60006001820161144a5761144a611422565b5060010190565b8181038181111561146457611464611422565b92915050565b634e487b7160e01b600052603260045260246000fd5b600181811c9082168061149457607f821691505b6020821081036114b457634e487b7160e01b600052602260045260246000fd5b50919050565b601f82111561150457600081815260208120601f850160051c810160208610156114e15750805b601f850160051c820191505b81811015611500578281556001016114ed565b5050505b505050565b815167ffffffffffffffff8111156115235761152361135b565b611537816115318454611480565b846114ba565b602080601f83116001811461156c57600084156115545750858301515b600019600386901b1c1916600185901b178555611500565b600085815260208120601f198616915b8281101561159b5788860151825594840194600190910190840161157c565b50858210156115b95787850151600019600388901b60f8161c191681555b5050505050600190811b01905550565b602081526000611354602083018461120656fea2646970667358221220aa0791f89d1c81baeef9fe8bc4583113b19c9b8abe3b93eb6649e24b1f7a27d864736f6c63430008130033",
  "linkReferences": {},
  "deployedLinkReferences": {}
}