{
  "_format": "hh-sol-artifact-1",
  "contractName": "VotingSystem",
  "sourceName": "contracts/VotingSystem.sol",
  "abi": [
    {
      "inputs": [],
      "stateMutability": "nonpayable",
      "type": "constructor"
    },
    {
      "anonymous": false,
      "inputs": [
        {
          "indexed": true,
          "internalType": "uint256",
          "name": "candidateId",
          "type": "uint256"
        },
        {
          "indexed": false,
          "internalType": "string",
          "name": "name",
          "type": "string"
        }
      ],
      "name": "CandidateAdded",
      "type": "event"
    },
    {
      "anonymous": false,
      "inputs": [
        {
          "indexed": true,
          "internalType": "address",
          "name": "previousOwner",
          "type": "address"
        },
        {
          "indexed": true,
          "internalType": "address",
          "name": "newOwner",
          "type": "address"
        }
      ],
      "name": "OwnershipTransferred",
      "type": "event"
    },
    {
      "anonymous": false,
      "inputs": [
        {
          "indexed": true,
          "internalType": "string",
          "name": "rwandanId",
          "type": "string"
        },
        {
          "indexed": true,
          "internalType": "uint256",
          "name": "candidateId",
          "type": "uint256"
        }
      ],
      "name": "VoteCast",
      "type": "event"
    },
    {
      "anonymous": false,
      "inputs": [
        {
          "indexed": true,
          "internalType": "string",
          "name": "rwandanId",
          "type": "string"
        },
        {
          "indexed": false,
          "internalType": "string",
          "name": "fullName",
          "type": "string"
        },
        {
          "indexed": false,
          "internalType": "string",
          "name": "village",
          "type": "string"
        }
      ],
      "name": "VoterRegistered",
      "type": "event"
    },
    {
      "anonymous": false,
      "inputs": [
        {
          "indexed": false,
          "internalType": "uint256",
          "name": "deadline",
          "type": "uint256"
        }
      ],
      "name": "VotingDeadlineSet",
      "type": "event"
    },
    {
      "anonymous": false,
      "inputs": [],
      "name": "VotingEnded",
      "type": "event"
    },
    {
      "anonymous": false,
      "inputs": [
        {
          "indexed": false,
          "internalType": "uint256",
          "name": "deadline",
          "type": "uint256"
        }
      ],
      "name": "VotingStarted",
      "type": "event"
    },
    {
      "inputs": [
        {
          "internalType": "address",
          "name": "",
          "type": "address"
        }
      ],
      "name": "addressToID",
      "outputs": [
        {
          "internalType": "string",
          "name": "",
          "type": "string"
        }
      ],
      "stateMutability": "view",
      "type": "function"
    },
    {
      "inputs": [
        {
          "internalType": "uint256",
          "name": "",
          "type": "uint256"
        }
      ],
      "name": "candidates",
      "outputs": [
        {
          "internalType": "uint256",
          "name": "id",
          "type": "uint256"
        },
        {
          "internalType": "string",
          "name": "name",
          "type": "string"
        },
        {
          "internalType": "string",
          "name": "imageUrl",
          "type": "string"
        },
        {
          "internalType": "uint256",
          "name": "voteCount",
          "type": "uint256"
        },
        {
          "internalType": "bool",
          "name": "exists",
          "type": "bool"
        }
      ],
      "stateMutability": "view",
      "type": "function"
    },
    {
      "inputs": [],
      "name": "candidatesCount",
      "outputs": [
        {
          "internalType": "uint256",
          "name": "",
          "type": "uint256"
        }
      ],
      "stateMutability": "view",
      "type": "function"
    },
    {
      "inputs": [],
      "name": "endVoting",
      "outputs": [],
      "stateMutability": "nonpayable",
      "type": "function"
    },
    {
      "inputs": [],
      "name": "getAllCandidates",
      "outputs": [
        {
          "internalType": "uint256[]",
          "name": "ids",
          "type": "uint256[]"
        },
        {
          "internalType": "string[]",
          "name": "names",
          "type": "string[]"
        },
        {
          "internalType": "string[]",
          "name": "imageUrls",
          "type": "string[]"
        },
        {
          "internalType": "uint256[]",
          "name": "voteCounts",
          "type": "uint256[]"
        }
      ],
      "stateMutability": "view",
      "type": "function"
    },
    {
      "inputs": [],
      "name": "getAllRegisteredIDs",
      "outputs": [
        {
          "internalType": "string[]",
          "name": "",
          "type": "string[]"
        }
      ],
      "stateMutability": "view",
      "type": "function"
    },
    {
      "inputs": [
        {
          "internalType": "uint256",
          "name": "_candidateId",
          "type": "uint256"
        }
      ],
      "name": "getCandidate",
      "outputs": [
        {
          "internalType": "uint256",
          "name": "id",
          "type": "uint256"
        },
        {
          "internalType": "string",
          "name": "name",
          "type": "string"
        },
        {
          "internalType": "string",
          "name": "imageUrl",
          "type": "string"
        },
        {
          "internalType": "uint256",
          "name": "voteCount",
          "type": "uint256"
        }
      ],
      "stateMutability": "view",
      "type": "function"
    },
    {
      "inputs": [],
      "name": "getCurrentLeader",
      "outputs": [
        {
          "internalType": "uint256",
          "name": "leaderId",
          "type": "uint256"
        },
        {
          "internalType": "string",
          "name": "leaderName",
          "type": "string"
        },
        {
          "internalType": "uint256",
          "name": "leaderVoteCount",
          "type": "uint256"
        }
      ],
      "stateMutability": "view",
      "type": "function"
    },
    {
      "inputs": [],
      "name": "getTimeRemaining",
      "outputs": [
        {
          "internalType": "uint256",
          "name": "",
          "type": "uint256"
        }
      ],
      "stateMutability": "view",
      "type": "function"
    },
    {
      "inputs": [
        {
          "internalType": "string",
          "name": "_rwandanId",
          "type": "string"
        }
      ],
      "name": "getVoterByID",
      "outputs": [
        {
          "internalType": "string",
          "name": "rwandanId",
          "type": "string"
        },
        {
          "internalType": "string",
          "name": "fullName",
          "type": "string"
        },
        {
          "internalType": "string",
          "name": "gender",
          "type": "string"
        },
        {
          "internalType": "string",
          "name": "village",
          "type": "string"
        },
        {
          "internalType": "bool",
          "name": "isRegistered",
          "type": "bool"
        },
        {
          "internalType": "bool",
          "name": "hasVoted",
          "type": "bool"
        },
        {
          "internalType": "uint256",
          "name": "votedCandidateId",
          "type": "uint256"
        }
      ],
      "stateMutability": "view",
      "type": "function"
    },
    {
      "inputs": [],
      "name": "getVotingStatus",
      "outputs": [
        {
          "internalType": "bool",
          "name": "isActive",
          "type": "bool"
        },
        {
          "internalType": "uint256",
          "name": "totalCandidates",
          "type": "uint256"
        },
        {
          "internalType": "uint256",
          "name": "totalVotesCast",
          "type": "uint256"
        },
        {
          "internalType": "uint256",
          "name": "deadline",
          "type": "uint256"
        },
        {
          "internalType": "bool",
          "name": "deadlinePassed",
          "type": "bool"
        }
      ],
      "stateMutability": "view",
      "type": "function"
    },
    {
      "inputs": [],
      "name": "getWinner",
      "outputs": [
        {
          "internalType": "uint256",
          "name": "winnerId",
          "type": "uint256"
        },
        {
          "internalType": "string",
          "name": "winnerName",
          "type": "string"
        },
        {
          "internalType": "uint256",
          "name": "winnerVoteCount",
          "type": "uint256"
        }
      ],
      "stateMutability": "view",
      "type": "function"
    },
    {
      "inputs": [
        {
          "internalType": "string",
          "name": "_rwandanId",
          "type": "string"
        }
      ],
      "name": "hasVoterVotedByID",
      "outputs": [
        {
          "internalType": "bool",
          "name": "",
          "type": "bool"
        }
      ],
      "stateMutability": "view",
      "type": "function"
    },
    {
      "inputs": [
        {
          "internalType": "string",
          "name": "_rwandanId",
          "type": "string"
        }
      ],
      "name": "isVoterRegisteredByID",
      "outputs": [
        {
          "internalType": "bool",
          "name": "",
          "type": "bool"
        }
      ],
      "stateMutability": "view",
      "type": "function"
    },
    {
      "inputs": [],
      "name": "owner",
      "outputs": [
        {
          "internalType": "address",
          "name": "",
          "type": "address"
        }
      ],
      "stateMutability": "view",
      "type": "function"
    },
    {
      "inputs": [
        {
          "internalType": "string",
          "name": "_rwandanId",
          "type": "string"
        },
        {
          "internalType": "string",
          "name": "_fullName",
          "type": "string"
        },
        {
          "internalType": "string",
          "name": "_gender",
          "type": "string"
        },
        {
          "internalType": "string",
          "name": "_village",
          "type": "string"
        },
        {
          "internalType": "address",
          "name": "_voterAddress",
          "type": "address"
        }
      ],
      "name": "registerVoter",
      "outputs": [],
      "stateMutability": "nonpayable",
      "type": "function"
    },
    {
      "inputs": [
        {
          "internalType": "uint256",
          "name": "",
          "type": "uint256"
        }
      ],
      "name": "registeredIDs",
      "outputs": [
        {
          "internalType": "string",
          "name": "",
          "type": "string"
        }
      ],
      "stateMutability": "view",
      "type": "function"
    },
    {
      "inputs": [
        {
          "internalType": "string",
          "name": "_rwandanId",
          "type": "string"
        }
      ],
      "name": "removeVoter",
      "outputs": [],
      "stateMutability": "nonpayable",
      "type": "function"
    },
    {
      "inputs": [],
      "name": "renounceOwnership",
      "outputs": [],
      "stateMutability": "nonpayable",
      "type": "function"
    },
    {
      "inputs": [
        {
          "internalType": "uint256",
          "name": "_deadline",
          "type": "uint256"
        }
      ],
      "name": "setVotingDeadline",
      "outputs": [],
      "stateMutability": "nonpayable",
      "type": "function"
    },
    {
      "inputs": [
        {
          "internalType": "uint256",
          "name": "_deadline",
          "type": "uint256"
        }
      ],
      "name": "startVoting",
      "outputs": [],
      "stateMutability": "nonpayable",
      "type": "function"
    },
    {
      "inputs": [],
      "name": "totalVotes",
      "outputs": [
        {
          "internalType": "uint256",
          "name": "",
          "type": "uint256"
        }
      ],
      "stateMutability": "view",
      "type": "function"
    },
    {
      "inputs": [
        {
          "internalType": "address",
          "name": "newOwner",
          "type": "address"
        }
      ],
      "name": "transferOwnership",
      "outputs": [],
      "stateMutability": "nonpayable",
      "type": "function"
    },
    {
      "inputs": [
        {
          "internalType": "uint256",
          "name": "_candidateId",
          "type": "uint256"
        },
        {
          "internalType": "string",
          "name": "_imageUrl",
          "type": "string"
        }
      ],
      "name": "updateCandidateImage",
      "outputs": [],
      "stateMutability": "nonpayable",
      "type": "function"
    },
    {
      "inputs": [
        {
          "internalType": "string",
          "name": "_rwandanId",
          "type": "string"
        },
        {
          "internalType": "string",
          "name": "_fullName",
          "type": "string"
        },
        {
          "internalType": "string",
          "name": "_gender",
          "type": "string"
        },
        {
          "internalType": "string",
          "name": "_village",
          "type": "string"
        }
      ],
      "name": "updateVoter",
      "outputs": [],
      "stateMutability": "nonpayable",
      "type": "function"
    },
    {
      "inputs": [
        {
          "internalType": "uint256",
          "name": "_candidateId",
          "type": "uint256"
        }
      ],
      "name": "vote",
      "outputs": [],
      "stateMutability": "nonpayable",
      "type": "function"
    },
    {
      "inputs": [
        {
          "internalType": "string",
          "name": "",
          "type": "string"
        }
      ],
      "name": "votersByID",
      "outputs": [
        {
          "internalType": "string",
          "name": "rwandanId",
          "type": "string"
        },
        {
          "internalType": "string",
          "name": "fullName",
          "type": "string"
        },
        {
          "internalType": "string",
          "name": "gender",
          "type": "string"
        },
        {
          "internalType": "string",
          "name": "village",
          "type": "string"
        },
        {
          "internalType": "bool",
          "name": "isRegistered",
          "type": "bool"
        },
        {
          "internalType": "bool",
          "name": "hasVoted",
          "type": "bool"
        },
        {
          "internalType": "uint256",
          "name": "votedCandidateId",
          "type": "uint256"
        }
      ],
      "stateMutability": "view",
      "type": "function"
    },
    {
      "inputs": [],
      "name": "votingActive",
      "outputs": [
        {
          "internalType": "bool",
          "name": "",
          "type": "bool"
        }
      ],
      "stateMutability": "view",
      "type": "function"
    },
    {
      "inputs": [],
      "name": "votingDeadline",
      "outputs": [
        {
          "internalType": "uint256",
          "name": "",
          "type": "uint256"
        }
      ],
      "stateMutability": "view",
      "type": "function"
    }
  ],
  "bytecode": "0x60806040523480156200001157600080fd5b506200001d3362000102565b600180556008805460ff1916905560006009819055604080518082018252600b81526a12d051d05351481410555360aa1b60208083019190915282519081019092529181526200006e919062000152565b620000b36040518060400160405280600c81526020016b414e445920495348494d574560a01b815250604051806020016040528060008152506200015260201b60201c565b620000fc6040518060400160405280601081526020016f24a9a424a6aba29023a424a9a620a4a760811b815250604051806020016040528060008152506200015260201b60201c565b62000423565b600080546001600160a01b038381166001600160a01b0319831681178455604051919092169283917f8be0079c531659141344cd1fd0a4f28419497f9722a3daafe3b4186f6b6457e09190a35050565b6006805490600062000164836200023a565b90915550506040805160a0810182526006548082526020808301868152838501869052600060608501819052600160808601819052938152600490925293902082518155925191929190820190620001bd908262000307565b5060408201516002820190620001d4908262000307565b50606082015160038201556080909101516004909101805460ff19169115159190911790556006546040517fe83b2a43e7e82d975c8a0a6d2f045153c869e111136a34d1889ab7b598e396a3906200022e908590620003d3565b60405180910390a25050565b6000600182016200025b57634e487b7160e01b600052601160045260246000fd5b5060010190565b634e487b7160e01b600052604160045260246000fd5b600181811c908216806200028d57607f821691505b602082108103620002ae57634e487b7160e01b600052602260045260246000fd5b50919050565b601f8211156200030257600081815260208120601f850160051c81016020861015620002dd5750805b601f850160051c820191505b81811015620002fe57828155600101620002e9565b5050505b505050565b81516001600160401b0381111562000323576200032362000262565b6200033b8162000334845462000278565b84620002b4565b602080601f8311600181146200037357600084156200035a5750858301515b600019600386901b1c1916600185901b178555620002fe565b600085815260208120601f198616915b82811015620003a45788860151825594840194600190910190840162000383565b5085821015620003c35787850151600019600388901b60f8161c191681555b5050505050600190811b01905550565b600060208083528351808285015260005b818110156200040257858101830151858201604001528201620003e4565b506000604082860101526040601f19601f8301168501019250505092915050565b6130ee80620004336000396000f3fe608060405234801561001057600080fd5b50600436106101cf5760003560e01c80636ba60abb11610104578063dac6270d116100a2578063ef135b3711610071578063ef135b3714610401578063f2fde38b14610414578063fc99ef8014610427578063fcabb1461461043a57600080fd5b8063dac6270d146103cb578063e6bcca49146103d3578063e868ba70146103e6578063edfbf7b6146103ee57600080fd5b80638da5cb5b116100de5780638da5cb5b1461037e5780638e7ea5b214610399578063bfbadc70146103b0578063c3403ddf146103c357600080fd5b80636ba60abb14610350578063715018a6146103635780638694142b1461036b57600080fd5b80633d2f5bda116101715780634961efec1161014b5780634961efec146102b9578063503e1118146102df57806354061905146102f4578063581c281c1461031457600080fd5b80633d2f5bda14610276578063408e27271461028957806341683e8e146102a657600080fd5b80632d35a8a2116101ad5780632d35a8a21461020e5780632e6997fe146102175780633477ee2e1461022f57806335b8e8201461025357600080fd5b80630121b93f146101d4578063036ee850146101e95780630d15fd7714610205575b600080fd5b6101e76101e236600461273d565b61044d565b005b6101f260095481565b6040519081526020015b60405180910390f35b6101f260075481565b6101f260065481565b61021f6108d3565b6040516101fc9493929190612839565b61024261023d36600461273d565b610c52565b6040516101fc959493929190612891565b61026661026136600461273d565b610d95565b6040516101fc94939291906128d6565b6101e761028436600461273d565b610f87565b6008546102969060ff1681565b60405190151581526020016101fc565b6102966102b43660046129b6565b6110a2565b6102cc6102c73660046129b6565b6110d0565b6040516101fc97969594939291906129f3565b6102e761133c565b6040516101fc9190612a60565b61030761030236600461273d565b611415565b6040516101fc9190612a7a565b6008546006546007546009546040805160ff9095161515855260208501939093529183015260608201819052421015608082015260a0016101fc565b61029661035e3660046129b6565b6114c1565b6101e76114f5565b610307610379366004612aa9565b611509565b6000546040516001600160a01b0390911681526020016101fc565b6103a1611522565b6040516101fc93929190612ac4565b6101e76103be366004612aed565b61170d565b6101e7611790565b6101f26117ef565b6101e76103e1366004612b34565b611822565b6103a1611ca4565b6101e76103fc36600461273d565b611d61565b6101e761040f3660046129b6565b611e0f565b6101e7610422366004612aa9565b611fff565b6102cc6104353660046129b6565b612078565b6101e7610448366004612bf2565b61235e565b336000908152600360205260408120805461046790612c9f565b80601f016020809104026020016040519081016040528092919081815260200182805461049390612c9f565b80156104e05780601f106104b5576101008083540402835291602001916104e0565b820191906000526020600020905b8154815290600101906020018083116104c357829003601f168201915b505050505090506000815111801561051a57506002816040516105039190612cd9565b9081526040519081900360200190206004015460ff165b61056b5760405162461bcd60e51b815260206004820152601e60248201527f596f7520617265206e6f74207265676973746572656420746f20766f7465000060448201526064015b60405180910390fd5b60085460ff1661058d5760405162461bcd60e51b815260040161056290612cf5565b60095442106105de5760405162461bcd60e51b815260206004820152601a60248201527f566f74696e6720646561646c696e6520686173207061737365640000000000006044820152606401610562565b33600090815260036020526040812080546105f890612c9f565b80601f016020809104026020016040519081016040528092919081815260200182805461062490612c9f565b80156106715780601f1061064657610100808354040283529160200191610671565b820191906000526020600020905b81548152906001019060200180831161065457829003601f168201915b505050505090506002816040516106889190612cd9565b9081526040519081900360200190206004015460ff61010090910416156106ea5760405162461bcd60e51b8152602060048201526016602482015275165bdd481a185d9948185b1c9958591e481d9bdd195960521b6044820152606401610562565b6106f26125ec565b60008311801561070457506006548311155b6107205760405162461bcd60e51b815260040161056290612d23565b6000838152600460208190526040909120015460ff166107525760405162461bcd60e51b815260040161056290612d51565b336000908152600360205260408120805461076c90612c9f565b80601f016020809104026020016040519081016040528092919081815260200182805461079890612c9f565b80156107e55780601f106107ba576101008083540402835291602001916107e5565b820191906000526020600020905b8154815290600101906020018083116107c857829003601f168201915b5050505050905060016002826040516107fe9190612cd9565b908152602001604051809103902060040160016101000a81548160ff021916908315150217905550836002826040516108379190612cd9565b9081526040805160209281900383019020600501929092556000868152600490915290812060030180549161086b83612d9e565b90915550506007805490600061088083612d9e565b919050555083816040516108949190612cd9565b604051908190038120907f777e12406713e556f995ae7467576ea751d01f243ff84668ef43b36634f3fa8890600090a3506108ce60018055565b505050565b60608060608060065467ffffffffffffffff8111156108f4576108f4612913565b60405190808252806020026020018201604052801561091d578160200160208202803683370190505b50935060065467ffffffffffffffff81111561093b5761093b612913565b60405190808252806020026020018201604052801561096e57816020015b60608152602001906001900390816109595790505b50925060065467ffffffffffffffff81111561098c5761098c612913565b6040519080825280602002602001820160405280156109bf57816020015b60608152602001906001900390816109aa5790505b50915060065467ffffffffffffffff8111156109dd576109dd612913565b604051908082528060200260200182016040528015610a06578160200160208202803683370190505b50905060015b6006548111610c4b576000818152600460208190526040909120015460ff1615610c395760008181526004602052604090205485610a4b600184612db7565b81518110610a5b57610a5b612dd0565b602002602001018181525050600460008281526020019081526020016000206001018054610a8890612c9f565b80601f0160208091040260200160405190810160405280929190818152602001828054610ab490612c9f565b8015610b015780601f10610ad657610100808354040283529160200191610b01565b820191906000526020600020905b815481529060010190602001808311610ae457829003601f168201915b505050505084600183610b149190612db7565b81518110610b2457610b24612dd0565b6020026020010181905250600460008281526020019081526020016000206002018054610b5090612c9f565b80601f0160208091040260200160405190810160405280929190818152602001828054610b7c90612c9f565b8015610bc95780601f10610b9e57610100808354040283529160200191610bc9565b820191906000526020600020905b815481529060010190602001808311610bac57829003601f168201915b505050505083600183610bdc9190612db7565b81518110610bec57610bec612dd0565b6020026020010181905250600460008281526020019081526020016000206003015482600183610c1c9190612db7565b81518110610c2c57610c2c612dd0565b6020026020010181815250505b80610c4381612d9e565b915050610a0c565b5090919293565b60046020526000908152604090208054600182018054919291610c7490612c9f565b80601f0160208091040260200160405190810160405280929190818152602001828054610ca090612c9f565b8015610ced5780601f10610cc257610100808354040283529160200191610ced565b820191906000526020600020905b815481529060010190602001808311610cd057829003601f168201915b505050505090806002018054610d0290612c9f565b80601f0160208091040260200160405190810160405280929190818152602001828054610d2e90612c9f565b8015610d7b5780601f10610d5057610100808354040283529160200191610d7b565b820191906000526020600020905b815481529060010190602001808311610d5e57829003601f168201915b50505050600383015460049093015491929160ff16905085565b600060608060008085118015610dad57506006548511155b610dc95760405162461bcd60e51b815260040161056290612d23565b6000858152600460208190526040909120015460ff16610dfb5760405162461bcd60e51b815260040161056290612d51565b6000600460008781526020019081526020016000206040518060a001604052908160008201548152602001600182018054610e3590612c9f565b80601f0160208091040260200160405190810160405280929190818152602001828054610e6190612c9f565b8015610eae5780601f10610e8357610100808354040283529160200191610eae565b820191906000526020600020905b815481529060010190602001808311610e9157829003601f168201915b50505050508152602001600282018054610ec790612c9f565b80601f0160208091040260200160405190810160405280929190818152602001828054610ef390612c9f565b8015610f405780601f10610f1557610100808354040283529160200191610f40565b820191906000526020600020905b815481529060010190602001808311610f2357829003601f168201915b5050509183525050600382015460208083019190915260049092015460ff161515604091820152825191830151908301516060909301519199909850919650945092505050565b610f8f612645565b60085460ff1615610fe25760405162461bcd60e51b815260206004820152601860248201527f566f74696e6720697320616c72656164792061637469766500000000000000006044820152606401610562565b6000600654116110045760405162461bcd60e51b815260040161056290612de6565b4281116110535760405162461bcd60e51b815260206004820152601e60248201527f446561646c696e65206d75737420626520696e207468652066757475726500006044820152606401610562565b6008805460ff1916600117905560098190556040517fcf33babc496bb6dc2942b39cb7b75766bbbadf7da50d176ff8c513e991140239906110979083815260200190565b60405180910390a150565b60006002826040516110b49190612cd9565b9081526040519081900360200190206004015460ff1692915050565b80516020818301810180516002825292820191909301209152805481906110f690612c9f565b80601f016020809104026020016040519081016040528092919081815260200182805461112290612c9f565b801561116f5780601f106111445761010080835404028352916020019161116f565b820191906000526020600020905b81548152906001019060200180831161115257829003601f168201915b50505050509080600101805461118490612c9f565b80601f01602080910402602001604051908101604052809291908181526020018280546111b090612c9f565b80156111fd5780601f106111d2576101008083540402835291602001916111fd565b820191906000526020600020905b8154815290600101906020018083116111e057829003601f168201915b50505050509080600201805461121290612c9f565b80601f016020809104026020016040519081016040528092919081815260200182805461123e90612c9f565b801561128b5780601f106112605761010080835404028352916020019161128b565b820191906000526020600020905b81548152906001019060200180831161126e57829003601f168201915b5050505050908060030180546112a090612c9f565b80601f01602080910402602001604051908101604052809291908181526020018280546112cc90612c9f565b80156113195780601f106112ee57610100808354040283529160200191611319565b820191906000526020600020905b8154815290600101906020018083116112fc57829003601f168201915b505050506004830154600590930154919260ff8082169361010090920416915087565b60606005805480602002602001604051908101604052809291908181526020016000905b8282101561140c57838290600052602060002001805461137f90612c9f565b80601f01602080910402602001604051908101604052809291908181526020018280546113ab90612c9f565b80156113f85780601f106113cd576101008083540402835291602001916113f8565b820191906000526020600020905b8154815290600101906020018083116113db57829003601f168201915b505050505081526020019060010190611360565b50505050905090565b6005818154811061142557600080fd5b90600052602060002001600091509050805461144090612c9f565b80601f016020809104026020016040519081016040528092919081815260200182805461146c90612c9f565b80156114b95780601f1061148e576101008083540402835291602001916114b9565b820191906000526020600020905b81548152906001019060200180831161149c57829003601f168201915b505050505081565b60006002826040516114d39190612cd9565b9081526040519081900360200190206004015460ff6101009091041692915050565b6114fd612645565b611507600061269f565b565b6003602052600090815260409020805461144090612c9f565b600854600090606090829060ff16158061153e57506009544210155b6115835760405162461bcd60e51b8152602060048201526016602482015275566f74696e67206973207374696c6c2061637469766560501b6044820152606401610562565b6000600654116115a55760405162461bcd60e51b815260040161056290612de6565b60008060015b6006548111611615576000818152600460208190526040909120015460ff1680156115e6575060008181526004602052604090206003015483105b156116035760008181526004602052604090206003015492509050805b8061160d81612d9e565b9150506115ab565b50600081116116585760405162461bcd60e51b815260206004820152600f60248201526e139bc81dda5b9b995c88199bdd5b99608a1b6044820152606401610562565b6000818152600460205260409020600381015460019091018054839290829061168090612c9f565b80601f01602080910402602001604051908101604052809291908181526020018280546116ac90612c9f565b80156116f95780601f106116ce576101008083540402835291602001916116f9565b820191906000526020600020905b8154815290600101906020018083116116dc57829003601f168201915b505050505091509450945094505050909192565b611715612645565b60008211801561172757506006548211155b6117435760405162461bcd60e51b815260040161056290612d23565b6000828152600460208190526040909120015460ff166117755760405162461bcd60e51b815260040161056290612d51565b60008281526004602052604090206002016108ce8282612e6b565b611798612645565b60085460ff166117ba5760405162461bcd60e51b815260040161056290612cf5565b6008805460ff191690556040517f7a19ed057db79e3c2fa0b97a54b43bef4fce74b31bb6c01af514b9a18a7f70ab90600090a1565b60006009546000148061180457506009544210155b1561180f5750600090565b4260095461181d9190612db7565b905090565b61182a612645565b845160101461187b5760405162461bcd60e51b815260206004820152601c60248201527f5277616e64616e204944206d75737420626520313620646967697473000000006044820152606401610562565b60008451116118c85760405162461bcd60e51b815260206004820152601960248201527846756c6c206e616d652063616e6e6f7420626520656d70747960381b6044820152606401610562565b60008251116119135760405162461bcd60e51b815260206004820152601760248201527656696c6c6167652063616e6e6f7420626520656d70747960481b6044820152606401610562565b604051634d616c6560e01b6020820152602401604051602081830303815290604052805190602001208360405160200161194d9190612cd9565b6040516020818303038152906040528051906020012014806119be57506040516546656d616c6560d01b602082015260260160405160208183030381529060405280519060200120836040516020016119a69190612cd9565b60405160208183030381529060405280519060200120145b611a0a5760405162461bcd60e51b815260206004820152601d60248201527f47656e646572206d757374206265204d616c65206f722046656d616c650000006044820152606401610562565b600285604051611a1a9190612cd9565b9081526040519081900360200190206004015460ff1615611a8e5760405162461bcd60e51b815260206004820152602860248201527f566f7465722077697468207468697320494420697320616c726561647920726560448201526719da5cdd195c995960c21b6064820152608401610562565b6001600160a01b03811660009081526003602052604090208054611ab190612c9f565b159050611b0c5760405162461bcd60e51b8152602060048201526024808201527f4164647265737320616c7265616479206c696e6b656420746f20616e6f7468656044820152631c88125160e21b6064820152608401610562565b6040518060e001604052808681526020018581526020018481526020018381526020016001151581526020016000151581526020016000815250600286604051611b569190612cd9565b90815260405190819003602001902081518190611b739082612e6b565b5060208201516001820190611b889082612e6b565b5060408201516002820190611b9d9082612e6b565b5060608201516003820190611bb29082612e6b565b50608082015160048201805460a085015115156101000261ff00199315159390931661ffff199091161791909117905560c0909101516005909101556001600160a01b0381166000908152600360205260409020611c108682612e6b565b50600580546001810182556000919091527f036b6384b5eca791c62761152d0c79bb0604c104a5fb6f4eb0703f3154bb3db001611c4d8682612e6b565b5084604051611c5c9190612cd9565b60405180910390207f990a80f13dbddcba3f0752663fd8b60f7ecf8242100bbbd965f66479c7df9a3a8584604051611c95929190612f2b565b60405180910390a25050505050565b6000606060008060065411611ccb5760405162461bcd60e51b815260040161056290612de6565b60008060015b6006548111611d3b576000818152600460208190526040909120015460ff168015611d0c575060008181526004602052604090206003015483105b15611d295760008181526004602052604090206003015492509050805b80611d3381612d9e565b915050611cd1565b508060000361165857505060408051602081019091526000808252949093508492509050565b611d69612645565b60085460ff16611d8b5760405162461bcd60e51b815260040161056290612cf5565b428111611dda5760405162461bcd60e51b815260206004820152601e60248201527f446561646c696e65206d75737420626520696e207468652066757475726500006044820152606401610562565b60098190556040518181527ffd8058d6bd9a8fd0c37890c5062e14dc156b90e8c1ff762ccef2517b6c4ec30990602001611097565b611e17612645565b600281604051611e279190612cd9565b9081526040519081900360200190206004015460ff16611e7b5760405162461bcd60e51b815260206004820152600f60248201526e159bdd195c881b9bdd08199bdd5b99608a1b6044820152606401610562565b600281604051611e8b9190612cd9565b9081526040519081900360200190206000611ea682826126ef565b611eb46001830160006126ef565b611ec26002830160006126ef565b611ed06003830160006126ef565b5060048101805461ffff19169055600060059091018190555b600554811015611ffb5781604051602001611f049190612cd9565b6040516020818303038152906040528051906020012060058281548110611f2d57611f2d612dd0565b90600052602060002001604051602001611f479190612f59565b6040516020818303038152906040528051906020012003611fe95760058054611f7290600190612db7565b81548110611f8257611f82612dd0565b9060005260206000200160058281548110611f9f57611f9f612dd0565b906000526020600020019081611fb59190612fcf565b506005805480611fc757611fc76130a2565b600190038181906000526020600020016000611fe391906126ef565b90555050565b80611ff381612d9e565b915050611ee9565b5050565b612007612645565b6001600160a01b03811661206c5760405162461bcd60e51b815260206004820152602660248201527f4f776e61626c653a206e6577206f776e657220697320746865207a65726f206160448201526564647265737360d01b6064820152608401610562565b6120758161269f565b50565b6060806060806000806000806002896040516120949190612cd9565b90815260200160405180910390206040518060e00160405290816000820180546120bd90612c9f565b80601f01602080910402602001604051908101604052809291908181526020018280546120e990612c9f565b80156121365780601f1061210b57610100808354040283529160200191612136565b820191906000526020600020905b81548152906001019060200180831161211957829003601f168201915b5050505050815260200160018201805461214f90612c9f565b80601f016020809104026020016040519081016040528092919081815260200182805461217b90612c9f565b80156121c85780601f1061219d576101008083540402835291602001916121c8565b820191906000526020600020905b8154815290600101906020018083116121ab57829003601f168201915b505050505081526020016002820180546121e190612c9f565b80601f016020809104026020016040519081016040528092919081815260200182805461220d90612c9f565b801561225a5780601f1061222f5761010080835404028352916020019161225a565b820191906000526020600020905b81548152906001019060200180831161223d57829003601f168201915b5050505050815260200160038201805461227390612c9f565b80601f016020809104026020016040519081016040528092919081815260200182805461229f90612c9f565b80156122ec5780601f106122c1576101008083540402835291602001916122ec565b820191906000526020600020905b8154815290600101906020018083116122cf57829003601f168201915b5050509183525050600482015460ff80821615156020808501919091526101009092041615156040808401919091526005909301546060928301528351908401519284015191840151608085015160a086015160c090960151929f949e50929c509a5090985091965090945092505050565b612366612645565b6002846040516123769190612cd9565b9081526040519081900360200190206004015460ff166123ca5760405162461bcd60e51b815260206004820152600f60248201526e159bdd195c881b9bdd08199bdd5b99608a1b6044820152606401610562565b60008351116124175760405162461bcd60e51b815260206004820152601960248201527846756c6c206e616d652063616e6e6f7420626520656d70747960381b6044820152606401610562565b60008151116124625760405162461bcd60e51b815260206004820152601760248201527656696c6c6167652063616e6e6f7420626520656d70747960481b6044820152606401610562565b604051634d616c6560e01b6020820152602401604051602081830303815290604052805190602001208260405160200161249c9190612cd9565b60405160208183030381529060405280519060200120148061250d57506040516546656d616c6560d01b602082015260260160405160208183030381529060405280519060200120826040516020016124f59190612cd9565b60405160208183030381529060405280519060200120145b6125595760405162461bcd60e51b815260206004820152601d60248201527f47656e646572206d757374206265204d616c65206f722046656d616c650000006044820152606401610562565b8260028560405161256a9190612cd9565b908152602001604051809103902060010190816125879190612e6b565b50816002856040516125999190612cd9565b908152602001604051809103902060020190816125b69190612e6b565b50806002856040516125c89190612cd9565b908152602001604051809103902060030190816125e59190612e6b565b5050505050565b60026001540361263e5760405162461bcd60e51b815260206004820152601f60248201527f5265656e7472616e637947756172643a207265656e7472616e742063616c6c006044820152606401610562565b6002600155565b6000546001600160a01b031633146115075760405162461bcd60e51b815260206004820181905260248201527f4f776e61626c653a2063616c6c6572206973206e6f7420746865206f776e65726044820152606401610562565b600080546001600160a01b038381166001600160a01b0319831681178455604051919092169283917f8be0079c531659141344cd1fd0a4f28419497f9722a3daafe3b4186f6b6457e09190a35050565b5080546126fb90612c9f565b6000825580601f1061270b575050565b601f01602090049060005260206000209081019061207591905b808211156127395760008155600101612725565b5090565b60006020828403121561274f57600080fd5b5035919050565b600081518084526020808501945080840160005b838110156127865781518752958201959082019060010161276a565b509495945050505050565b60005b838110156127ac578181015183820152602001612794565b50506000910152565b600081518084526127cd816020860160208601612791565b601f01601f19169290920160200192915050565b600082825180855260208086019550808260051b84010181860160005b8481101561282c57601f1986840301895261281a8383516127b5565b988401989250908301906001016127fe565b5090979650505050505050565b60808152600061284c6080830187612756565b828103602084015261285e81876127e1565b9050828103604084015261287281866127e1565b905082810360608401526128868185612756565b979650505050505050565b85815260a0602082015260006128aa60a08301876127b5565b82810360408401526128bc81876127b5565b606084019590955250509015156080909101529392505050565b8481526080602082015260006128ef60808301866127b5565b828103604084015261290181866127b5565b91505082606083015295945050505050565b634e487b7160e01b600052604160045260246000fd5b600082601f83011261293a57600080fd5b813567ffffffffffffffff8082111561295557612955612913565b604051601f8301601f19908116603f0116810190828211818310171561297d5761297d612913565b8160405283815286602085880101111561299657600080fd5b836020870160208301376000602085830101528094505050505092915050565b6000602082840312156129c857600080fd5b813567ffffffffffffffff8111156129df57600080fd5b6129eb84828501612929565b949350505050565b60e081526000612a0660e083018a6127b5565b8281036020840152612a18818a6127b5565b90508281036040840152612a2c81896127b5565b90508281036060840152612a4081886127b5565b9515156080840152505091151560a083015260c090910152949350505050565b602081526000612a7360208301846127e1565b9392505050565b602081526000612a7360208301846127b5565b80356001600160a01b0381168114612aa457600080fd5b919050565b600060208284031215612abb57600080fd5b612a7382612a8d565b838152606060208201526000612add60608301856127b5565b9050826040830152949350505050565b60008060408385031215612b0057600080fd5b82359150602083013567ffffffffffffffff811115612b1e57600080fd5b612b2a85828601612929565b9150509250929050565b600080600080600060a08688031215612b4c57600080fd5b853567ffffffffffffffff80821115612b6457600080fd5b612b7089838a01612929565b96506020880135915080821115612b8657600080fd5b612b9289838a01612929565b95506040880135915080821115612ba857600080fd5b612bb489838a01612929565b94506060880135915080821115612bca57600080fd5b50612bd788828901612929565b925050612be660808701612a8d565b90509295509295909350565b60008060008060808587031215612c0857600080fd5b843567ffffffffffffffff80821115612c2057600080fd5b612c2c88838901612929565b95506020870135915080821115612c4257600080fd5b612c4e88838901612929565b94506040870135915080821115612c6457600080fd5b612c7088838901612929565b93506060870135915080821115612c8657600080fd5b50612c9387828801612929565b91505092959194509250565b600181811c90821680612cb357607f821691505b602082108103612cd357634e487b7160e01b600052602260045260246000fd5b50919050565b60008251612ceb818460208701612791565b9190910192915050565b602080825260149082015273566f74696e67206973206e6f742061637469766560601b604082015260600190565b602080825260149082015273125b9d985b1a590818d85b991a59185d1948125160621b604082015260600190565b60208082526018908201527f43616e64696461746520646f6573206e6f742065786973740000000000000000604082015260600190565b634e487b7160e01b600052601160045260246000fd5b600060018201612db057612db0612d88565b5060010190565b81810381811115612dca57612dca612d88565b92915050565b634e487b7160e01b600052603260045260246000fd5b60208082526017908201527f4e6f2063616e6469646174657320617661696c61626c65000000000000000000604082015260600190565b601f8211156108ce57600081815260208120601f850160051c81016020861015612e445750805b601f850160051c820191505b81811015612e6357828155600101612e50565b505050505050565b815167ffffffffffffffff811115612e8557612e85612913565b612e9981612e938454612c9f565b84612e1d565b602080601f831160018114612ece5760008415612eb65750858301515b600019600386901b1c1916600185901b178555612e63565b600085815260208120601f198616915b82811015612efd57888601518255948401946001909101908401612ede565b5085821015612f1b5787850151600019600388901b60f8161c191681555b5050505050600190811b01905550565b604081526000612f3e60408301856127b5565b8281036020840152612f5081856127b5565b95945050505050565b6000808354612f6781612c9f565b60018281168015612f7f5760018114612f9457612fc3565b60ff1984168752821515830287019450612fc3565b8760005260208060002060005b85811015612fba5781548a820152908401908201612fa1565b50505082870194505b50929695505050505050565b818103612fda575050565b612fe48254612c9f565b67ffffffffffffffff811115612ffc57612ffc612913565b61300a81612e938454612c9f565b6000601f82116001811461303e57600083156130265750848201545b600019600385901b1c1916600184901b1784556125e5565b600085815260209020601f19841690600086815260209020845b838110156130785782860154825560019586019590910190602001613058565b5085831015612f1b5793015460001960f8600387901b161c19169092555050600190811b01905550565b634e487b7160e01b600052603160045260246000fdfea26469706673582212205e8ccaeffbf8194aa4e0d01c06260d318ce952db5708e8b4a7cecb5cf02e0bd964736f6c63430008130033",
  "linkReferences": {},
  "deployedLinkReferences": {}
}