{
  "_format": "hh-sol-artifact-1",
  "contractName": "VotingSystem",
  "sourceName": "contracts/VotingSystem.sol",
  "abi": [
    {
      "inputs": [],
      "stateMutability": "nonpayable",
      "type": "constructor"
    },
    {
      "anonymous": false,
      "inputs": [
        {
          "indexed": true,
          "internalType": "uint256",
          "name": "candidateId",
          "type": "uint256"
        },
        {
          "indexed": false,
          "internalType": "string",
          "name": "name",
          "type": "string"
        }
      ],
      "name": "CandidateAdded",
      "type": "event"
    },
    {
      "anonymous": false,
      "inputs": [
        {
          "indexed": true,
          "internalType": "address",
          "name": "previousOwner",
          "type": "address"
        },
        {
          "indexed": true,
          "internalType": "address",
          "name": "newOwner",
          "type": "address"
        }
      ],
      "name": "OwnershipTransferred",
      "type": "event"
    },
    {
      "anonymous": false,
      "inputs": [
        {
          "indexed": true,
          "internalType": "string",
          "name": "rwandanId",
          "type": "string"
        },
        {
          "indexed": true,
          "internalType": "uint256",
          "name": "candidateId",
          "type": "uint256"
        }
      ],
      "name": "VoteCast",
      "type": "event"
    },
    {
      "anonymous": false,
      "inputs": [
        {
          "indexed": true,
          "internalType": "string",
          "name": "rwandanId",
          "type": "string"
        },
        {
          "indexed": false,
          "internalType": "string",
          "name": "fullName",
          "type": "string"
        }
      ],
      "name": "VoterRegistered",
      "type": "event"
    },
    {
      "anonymous": false,
      "inputs": [],
      "name": "VotingEnded",
      "type": "event"
    },
    {
      "anonymous": false,
      "inputs": [],
      "name": "VotingStarted",
      "type": "event"
    },
    {
      "inputs": [
        {
          "internalType": "address",
          "name": "",
          "type": "address"
        }
      ],
      "name": "addressToID",
      "outputs": [
        {
          "internalType": "string",
          "name": "",
          "type": "string"
        }
      ],
      "stateMutability": "view",
      "type": "function"
    },
    {
      "inputs": [
        {
          "internalType": "uint256",
          "name": "",
          "type": "uint256"
        }
      ],
      "name": "candidates",
      "outputs": [
        {
          "internalType": "uint256",
          "name": "id",
          "type": "uint256"
        },
        {
          "internalType": "string",
          "name": "name",
          "type": "string"
        },
        {
          "internalType": "string",
          "name": "imageUrl",
          "type": "string"
        },
        {
          "internalType": "uint256",
          "name": "voteCount",
          "type": "uint256"
        },
        {
          "internalType": "bool",
          "name": "exists",
          "type": "bool"
        }
      ],
      "stateMutability": "view",
      "type": "function"
    },
    {
      "inputs": [],
      "name": "candidatesCount",
      "outputs": [
        {
          "internalType": "uint256",
          "name": "",
          "type": "uint256"
        }
      ],
      "stateMutability": "view",
      "type": "function"
    },
    {
      "inputs": [],
      "name": "endVoting",
      "outputs": [],
      "stateMutability": "nonpayable",
      "type": "function"
    },
    {
      "inputs": [],
      "name": "getAllCandidates",
      "outputs": [
        {
          "internalType": "uint256[]",
          "name": "ids",
          "type": "uint256[]"
        },
        {
          "internalType": "string[]",
          "name": "names",
          "type": "string[]"
        },
        {
          "internalType": "string[]",
          "name": "imageUrls",
          "type": "string[]"
        },
        {
          "internalType": "uint256[]",
          "name": "voteCounts",
          "type": "uint256[]"
        }
      ],
      "stateMutability": "view",
      "type": "function"
    },
    {
      "inputs": [],
      "name": "getAllRegisteredIDs",
      "outputs": [
        {
          "internalType": "string[]",
          "name": "",
          "type": "string[]"
        }
      ],
      "stateMutability": "view",
      "type": "function"
    },
    {
      "inputs": [
        {
          "internalType": "uint256",
          "name": "_candidateId",
          "type": "uint256"
        }
      ],
      "name": "getCandidate",
      "outputs": [
        {
          "internalType": "uint256",
          "name": "id",
          "type": "uint256"
        },
        {
          "internalType": "string",
          "name": "name",
          "type": "string"
        },
        {
          "internalType": "string",
          "name": "imageUrl",
          "type": "string"
        },
        {
          "internalType": "uint256",
          "name": "voteCount",
          "type": "uint256"
        }
      ],
      "stateMutability": "view",
      "type": "function"
    },
    {
      "inputs": [
        {
          "internalType": "string",
          "name": "_rwandanId",
          "type": "string"
        }
      ],
      "name": "getVoterByID",
      "outputs": [
        {
          "internalType": "string",
          "name": "rwandanId",
          "type": "string"
        },
        {
          "internalType": "string",
          "name": "fullName",
          "type": "string"
        },
        {
          "internalType": "string",
          "name": "gender",
          "type": "string"
        },
        {
          "internalType": "bool",
          "name": "isRegistered",
          "type": "bool"
        },
        {
          "internalType": "bool",
          "name": "hasVoted",
          "type": "bool"
        },
        {
          "internalType": "uint256",
          "name": "votedCandidateId",
          "type": "uint256"
        }
      ],
      "stateMutability": "view",
      "type": "function"
    },
    {
      "inputs": [],
      "name": "getVotingStatus",
      "outputs": [
        {
          "internalType": "bool",
          "name": "isActive",
          "type": "bool"
        },
        {
          "internalType": "uint256",
          "name": "totalCandidates",
          "type": "uint256"
        },
        {
          "internalType": "uint256",
          "name": "totalVotesCast",
          "type": "uint256"
        }
      ],
      "stateMutability": "view",
      "type": "function"
    },
    {
      "inputs": [],
      "name": "getWinner",
      "outputs": [
        {
          "internalType": "uint256",
          "name": "winnerId",
          "type": "uint256"
        },
        {
          "internalType": "string",
          "name": "winnerName",
          "type": "string"
        },
        {
          "internalType": "uint256",
          "name": "winnerVoteCount",
          "type": "uint256"
        }
      ],
      "stateMutability": "view",
      "type": "function"
    },
    {
      "inputs": [
        {
          "internalType": "string",
          "name": "_rwandanId",
          "type": "string"
        }
      ],
      "name": "hasVoterVotedByID",
      "outputs": [
        {
          "internalType": "bool",
          "name": "",
          "type": "bool"
        }
      ],
      "stateMutability": "view",
      "type": "function"
    },
    {
      "inputs": [
        {
          "internalType": "string",
          "name": "_rwandanId",
          "type": "string"
        }
      ],
      "name": "isVoterRegisteredByID",
      "outputs": [
        {
          "internalType": "bool",
          "name": "",
          "type": "bool"
        }
      ],
      "stateMutability": "view",
      "type": "function"
    },
    {
      "inputs": [],
      "name": "owner",
      "outputs": [
        {
          "internalType": "address",
          "name": "",
          "type": "address"
        }
      ],
      "stateMutability": "view",
      "type": "function"
    },
    {
      "inputs": [
        {
          "internalType": "string",
          "name": "_rwandanId",
          "type": "string"
        },
        {
          "internalType": "string",
          "name": "_fullName",
          "type": "string"
        },
        {
          "internalType": "string",
          "name": "_gender",
          "type": "string"
        },
        {
          "internalType": "address",
          "name": "_voterAddress",
          "type": "address"
        }
      ],
      "name": "registerVoter",
      "outputs": [],
      "stateMutability": "nonpayable",
      "type": "function"
    },
    {
      "inputs": [
        {
          "internalType": "uint256",
          "name": "",
          "type": "uint256"
        }
      ],
      "name": "registeredIDs",
      "outputs": [
        {
          "internalType": "string",
          "name": "",
          "type": "string"
        }
      ],
      "stateMutability": "view",
      "type": "function"
    },
    {
      "inputs": [
        {
          "internalType": "string",
          "name": "_rwandanId",
          "type": "string"
        }
      ],
      "name": "removeVoter",
      "outputs": [],
      "stateMutability": "nonpayable",
      "type": "function"
    },
    {
      "inputs": [],
      "name": "renounceOwnership",
      "outputs": [],
      "stateMutability": "nonpayable",
      "type": "function"
    },
    {
      "inputs": [],
      "name": "startVoting",
      "outputs": [],
      "stateMutability": "nonpayable",
      "type": "function"
    },
    {
      "inputs": [],
      "name": "totalVotes",
      "outputs": [
        {
          "internalType": "uint256",
          "name": "",
          "type": "uint256"
        }
      ],
      "stateMutability": "view",
      "type": "function"
    },
    {
      "inputs": [
        {
          "internalType": "address",
          "name": "newOwner",
          "type": "address"
        }
      ],
      "name": "transferOwnership",
      "outputs": [],
      "stateMutability": "nonpayable",
      "type": "function"
    },
    {
      "inputs": [
        {
          "internalType": "uint256",
          "name": "_candidateId",
          "type": "uint256"
        },
        {
          "internalType": "string",
          "name": "_imageUrl",
          "type": "string"
        }
      ],
      "name": "updateCandidateImage",
      "outputs": [],
      "stateMutability": "nonpayable",
      "type": "function"
    },
    {
      "inputs": [
        {
          "internalType": "string",
          "name": "_rwandanId",
          "type": "string"
        },
        {
          "internalType": "string",
          "name": "_fullName",
          "type": "string"
        },
        {
          "internalType": "string",
          "name": "_gender",
          "type": "string"
        }
      ],
      "name": "updateVoter",
      "outputs": [],
      "stateMutability": "nonpayable",
      "type": "function"
    },
    {
      "inputs": [
        {
          "internalType": "uint256",
          "name": "_candidateId",
          "type": "uint256"
        }
      ],
      "name": "vote",
      "outputs": [],
      "stateMutability": "nonpayable",
      "type": "function"
    },
    {
      "inputs": [
        {
          "internalType": "string",
          "name": "",
          "type": "string"
        }
      ],
      "name": "votersByID",
      "outputs": [
        {
          "internalType": "string",
          "name": "rwandanId",
          "type": "string"
        },
        {
          "internalType": "string",
          "name": "fullName",
          "type": "string"
        },
        {
          "internalType": "string",
          "name": "gender",
          "type": "string"
        },
        {
          "internalType": "bool",
          "name": "isRegistered",
          "type": "bool"
        },
        {
          "internalType": "bool",
          "name": "hasVoted",
          "type": "bool"
        },
        {
          "internalType": "uint256",
          "name": "votedCandidateId",
          "type": "uint256"
        }
      ],
      "stateMutability": "view",
      "type": "function"
    },
    {
      "inputs": [],
      "name": "votingActive",
      "outputs": [
        {
          "internalType": "bool",
          "name": "",
          "type": "bool"
        }
      ],
      "stateMutability": "view",
      "type": "function"
    }
  ],
  "bytecode": "0x60806040523480156200001157600080fd5b506200001d33620000fb565b600180556008805460ff19169055604080518082018252600b81526a12d051d05351481410555360aa1b60208083019190915282519081019092526000825262000067916200014b565b620000ac6040518060400160405280600c81526020016b414e445920495348494d574560a01b815250604051806020016040528060008152506200014b60201b60201c565b620000f56040518060400160405280601081526020016f24a9a424a6aba29023a424a9a620a4a760811b815250604051806020016040528060008152506200014b60201b60201c565b6200041c565b600080546001600160a01b038381166001600160a01b0319831681178455604051919092169283917f8be0079c531659141344cd1fd0a4f28419497f9722a3daafe3b4186f6b6457e09190a35050565b600680549060006200015d8362000233565b90915550506040805160a0810182526006548082526020808301868152838501869052600060608501819052600160808601819052938152600490925293902082518155925191929190820190620001b6908262000300565b5060408201516002820190620001cd908262000300565b50606082015160038201556080909101516004909101805460ff19169115159190911790556006546040517fe83b2a43e7e82d975c8a0a6d2f045153c869e111136a34d1889ab7b598e396a39062000227908590620003cc565b60405180910390a25050565b6000600182016200025457634e487b7160e01b600052601160045260246000fd5b5060010190565b634e487b7160e01b600052604160045260246000fd5b600181811c908216806200028657607f821691505b602082108103620002a757634e487b7160e01b600052602260045260246000fd5b50919050565b601f821115620002fb57600081815260208120601f850160051c81016020861015620002d65750805b601f850160051c820191505b81811015620002f757828155600101620002e2565b5050505b505050565b81516001600160401b038111156200031c576200031c6200025b565b62000334816200032d845462000271565b84620002ad565b602080601f8311600181146200036c5760008415620003535750858301515b600019600386901b1c1916600185901b178555620002f7565b600085815260208120601f198616915b828110156200039d578886015182559484019460019091019084016200037c565b5085821015620003bc5787850151600019600388901b60f8161c191681555b5050505050600190811b01905550565b600060208083528351808285015260005b81811015620003fb57858101830151858201604001528201620003dd565b506000604082860101526040601f19601f8301168501019250505092915050565b612b82806200042c6000396000f3fe608060405234801561001057600080fd5b50600436106101735760003560e01c8063581c281c116100de578063b78f990911610097578063d27a537211610071578063d27a53721461035b578063ef135b371461036e578063f2fde38b14610381578063fc99ef801461039457600080fd5b8063b78f99091461032d578063bfbadc7014610340578063c3403ddf1461035357600080fd5b8063581c281c146102a35780636ba60abb146102cd578063715018a6146102e05780638694142b146102e85780638da5cb5b146102fb5780638e7ea5b21461031657600080fd5b806335b8e8201161013057806335b8e820146101f6578063408e27271461021957806341683e8e146102365780634961efec14610249578063503e11181461026e578063540619051461028357600080fd5b80630121b93f146101785780630d15fd771461018d5780631ec6b60a146101a95780632d35a8a2146101b15780632e6997fe146101ba5780633477ee2e146101d2575b600080fd5b61018b6101863660046122bb565b6103a7565b005b61019660075481565b6040519081526020015b60405180910390f35b61018b610803565b61019660065481565b6101c26108e2565b6040516101a094939291906123b7565b6101e56101e03660046122bb565b610c61565b6040516101a095949392919061240f565b6102096102043660046122bb565b610da4565b6040516101a09493929190612454565b6008546102269060ff1681565b60405190151581526020016101a0565b610226610244366004612534565b610f96565b61025c610257366004612534565b610fc4565b6040516101a096959493929190612571565b6102766111a2565b6040516101a091906125c9565b6102966102913660046122bb565b61127b565b6040516101a091906125e3565b6008546006546007546040805160ff909416151584526020840192909252908201526060016101a0565b6102266102db366004612534565b611327565b61018b61135b565b6102966102f6366004612612565b61136f565b6000546040516001600160a01b0390911681526020016101a0565b61031e611388565b6040516101a09392919061262d565b61018b61033b366004612656565b611590565b61018b61034e3660046126de565b6117a3565b61018b611826565b61018b610369366004612725565b6118ac565b61018b61037c366004612534565b611cc3565b61018b61038f366004612612565b611ea5565b61025c6103a2366004612534565b611f1e565b33600090815260036020526040812080546103c1906127be565b80601f01602080910402602001604051908101604052809291908181526020018280546103ed906127be565b801561043a5780601f1061040f5761010080835404028352916020019161043a565b820191906000526020600020905b81548152906001019060200180831161041d57829003601f168201915b5050505050905060008151118015610474575060028160405161045d91906127f8565b9081526040519081900360200190206003015460ff165b6104c55760405162461bcd60e51b815260206004820152601e60248201527f596f7520617265206e6f74207265676973746572656420746f20766f7465000060448201526064015b60405180910390fd5b60085460ff1661050e5760405162461bcd60e51b8152602060048201526014602482015273566f74696e67206973206e6f742061637469766560601b60448201526064016104bc565b3360009081526003602052604081208054610528906127be565b80601f0160208091040260200160405190810160405280929190818152602001828054610554906127be565b80156105a15780601f10610576576101008083540402835291602001916105a1565b820191906000526020600020905b81548152906001019060200180831161058457829003601f168201915b505050505090506002816040516105b891906127f8565b9081526040519081900360200190206003015460ff610100909104161561061a5760405162461bcd60e51b8152602060048201526016602482015275165bdd481a185d9948185b1c9958591e481d9bdd195960521b60448201526064016104bc565b61062261216a565b60008311801561063457506006548311155b6106505760405162461bcd60e51b81526004016104bc90612814565b6000838152600460208190526040909120015460ff166106825760405162461bcd60e51b81526004016104bc90612842565b336000908152600360205260408120805461069c906127be565b80601f01602080910402602001604051908101604052809291908181526020018280546106c8906127be565b80156107155780601f106106ea57610100808354040283529160200191610715565b820191906000526020600020905b8154815290600101906020018083116106f857829003601f168201915b50505050509050600160028260405161072e91906127f8565b908152602001604051809103902060030160016101000a81548160ff0219169083151502179055508360028260405161076791906127f8565b9081526040805160209281900383019020600490810193909355600087815292909152812060030180549161079b8361288f565b9091555050600780549060006107b08361288f565b919050555083816040516107c491906127f8565b604051908190038120907f777e12406713e556f995ae7467576ea751d01f243ff84668ef43b36634f3fa8890600090a3506107fe60018055565b505050565b61080b6121c3565b60085460ff161561085e5760405162461bcd60e51b815260206004820152601860248201527f566f74696e6720697320616c726561647920616374697665000000000000000060448201526064016104bc565b6000600654116108aa5760405162461bcd60e51b81526020600482015260176024820152764e6f2063616e6469646174657320617661696c61626c6560481b60448201526064016104bc565b6008805460ff191660011790556040517f877e2548498f42b7975a186b94ef1d32c86d420b7b806dd2be2bea293b89590490600090a1565b60608060608060065467ffffffffffffffff81111561090357610903612491565b60405190808252806020026020018201604052801561092c578160200160208202803683370190505b50935060065467ffffffffffffffff81111561094a5761094a612491565b60405190808252806020026020018201604052801561097d57816020015b60608152602001906001900390816109685790505b50925060065467ffffffffffffffff81111561099b5761099b612491565b6040519080825280602002602001820160405280156109ce57816020015b60608152602001906001900390816109b95790505b50915060065467ffffffffffffffff8111156109ec576109ec612491565b604051908082528060200260200182016040528015610a15578160200160208202803683370190505b50905060015b6006548111610c5a576000818152600460208190526040909120015460ff1615610c485760008181526004602052604090205485610a5a6001846128a8565b81518110610a6a57610a6a6128c1565b602002602001018181525050600460008281526020019081526020016000206001018054610a97906127be565b80601f0160208091040260200160405190810160405280929190818152602001828054610ac3906127be565b8015610b105780601f10610ae557610100808354040283529160200191610b10565b820191906000526020600020905b815481529060010190602001808311610af357829003601f168201915b505050505084600183610b2391906128a8565b81518110610b3357610b336128c1565b6020026020010181905250600460008281526020019081526020016000206002018054610b5f906127be565b80601f0160208091040260200160405190810160405280929190818152602001828054610b8b906127be565b8015610bd85780601f10610bad57610100808354040283529160200191610bd8565b820191906000526020600020905b815481529060010190602001808311610bbb57829003601f168201915b505050505083600183610beb91906128a8565b81518110610bfb57610bfb6128c1565b6020026020010181905250600460008281526020019081526020016000206003015482600183610c2b91906128a8565b81518110610c3b57610c3b6128c1565b6020026020010181815250505b80610c528161288f565b915050610a1b565b5090919293565b60046020526000908152604090208054600182018054919291610c83906127be565b80601f0160208091040260200160405190810160405280929190818152602001828054610caf906127be565b8015610cfc5780601f10610cd157610100808354040283529160200191610cfc565b820191906000526020600020905b815481529060010190602001808311610cdf57829003601f168201915b505050505090806002018054610d11906127be565b80601f0160208091040260200160405190810160405280929190818152602001828054610d3d906127be565b8015610d8a5780601f10610d5f57610100808354040283529160200191610d8a565b820191906000526020600020905b815481529060010190602001808311610d6d57829003601f168201915b50505050600383015460049093015491929160ff16905085565b600060608060008085118015610dbc57506006548511155b610dd85760405162461bcd60e51b81526004016104bc90612814565b6000858152600460208190526040909120015460ff16610e0a5760405162461bcd60e51b81526004016104bc90612842565b6000600460008781526020019081526020016000206040518060a001604052908160008201548152602001600182018054610e44906127be565b80601f0160208091040260200160405190810160405280929190818152602001828054610e70906127be565b8015610ebd5780601f10610e9257610100808354040283529160200191610ebd565b820191906000526020600020905b815481529060010190602001808311610ea057829003601f168201915b50505050508152602001600282018054610ed6906127be565b80601f0160208091040260200160405190810160405280929190818152602001828054610f02906127be565b8015610f4f5780601f10610f2457610100808354040283529160200191610f4f565b820191906000526020600020905b815481529060010190602001808311610f3257829003601f168201915b5050509183525050600382015460208083019190915260049092015460ff161515604091820152825191830151908301516060909301519199909850919650945092505050565b6000600282604051610fa891906127f8565b9081526040519081900360200190206003015460ff1692915050565b8051602081830181018051600282529282019190930120915280548190610fea906127be565b80601f0160208091040260200160405190810160405280929190818152602001828054611016906127be565b80156110635780601f1061103857610100808354040283529160200191611063565b820191906000526020600020905b81548152906001019060200180831161104657829003601f168201915b505050505090806001018054611078906127be565b80601f01602080910402602001604051908101604052809291908181526020018280546110a4906127be565b80156110f15780601f106110c6576101008083540402835291602001916110f1565b820191906000526020600020905b8154815290600101906020018083116110d457829003601f168201915b505050505090806002018054611106906127be565b80601f0160208091040260200160405190810160405280929190818152602001828054611132906127be565b801561117f5780601f106111545761010080835404028352916020019161117f565b820191906000526020600020905b81548152906001019060200180831161116257829003601f168201915b505050506003830154600490930154919260ff8082169361010090920416915086565b60606005805480602002602001604051908101604052809291908181526020016000905b828210156112725783829060005260206000200180546111e5906127be565b80601f0160208091040260200160405190810160405280929190818152602001828054611211906127be565b801561125e5780601f106112335761010080835404028352916020019161125e565b820191906000526020600020905b81548152906001019060200180831161124157829003601f168201915b5050505050815260200190600101906111c6565b50505050905090565b6005818154811061128b57600080fd5b9060005260206000200160009150905080546112a6906127be565b80601f01602080910402602001604051908101604052809291908181526020018280546112d2906127be565b801561131f5780601f106112f45761010080835404028352916020019161131f565b820191906000526020600020905b81548152906001019060200180831161130257829003601f168201915b505050505081565b600060028260405161133991906127f8565b9081526040519081900360200190206003015460ff6101009091041692915050565b6113636121c3565b61136d600061221d565b565b600360205260009081526040902080546112a6906127be565b600854600090606090829060ff16156113dc5760405162461bcd60e51b8152602060048201526016602482015275566f74696e67206973207374696c6c2061637469766560501b60448201526064016104bc565b6000600654116114285760405162461bcd60e51b81526020600482015260176024820152764e6f2063616e6469646174657320617661696c61626c6560481b60448201526064016104bc565b60008060015b6006548111611498576000818152600460208190526040909120015460ff168015611469575060008181526004602052604090206003015483105b156114865760008181526004602052604090206003015492509050805b806114908161288f565b91505061142e565b50600081116114db5760405162461bcd60e51b815260206004820152600f60248201526e139bc81dda5b9b995c88199bdd5b99608a1b60448201526064016104bc565b60008181526004602052604090206003810154600190910180548392908290611503906127be565b80601f016020809104026020016040519081016040528092919081815260200182805461152f906127be565b801561157c5780601f106115515761010080835404028352916020019161157c565b820191906000526020600020905b81548152906001019060200180831161155f57829003601f168201915b505050505091509450945094505050909192565b6115986121c3565b6002836040516115a891906127f8565b9081526040519081900360200190206003015460ff166115fc5760405162461bcd60e51b815260206004820152600f60248201526e159bdd195c881b9bdd08199bdd5b99608a1b60448201526064016104bc565b60008251116116495760405162461bcd60e51b815260206004820152601960248201527846756c6c206e616d652063616e6e6f7420626520656d70747960381b60448201526064016104bc565b604051634d616c6560e01b6020820152602401604051602081830303815290604052805190602001208160405160200161168391906127f8565b6040516020818303038152906040528051906020012014806116f457506040516546656d616c6560d01b602082015260260160405160208183030381529060405280519060200120816040516020016116dc91906127f8565b60405160208183030381529060405280519060200120145b6117405760405162461bcd60e51b815260206004820152601d60248201527f47656e646572206d757374206265204d616c65206f722046656d616c6500000060448201526064016104bc565b8160028460405161175191906127f8565b9081526020016040518091039020600101908161176e9190612925565b508060028460405161178091906127f8565b9081526020016040518091039020600201908161179d9190612925565b50505050565b6117ab6121c3565b6000821180156117bd57506006548211155b6117d95760405162461bcd60e51b81526004016104bc90612814565b6000828152600460208190526040909120015460ff1661180b5760405162461bcd60e51b81526004016104bc90612842565b60008281526004602052604090206002016107fe8282612925565b61182e6121c3565b60085460ff166118775760405162461bcd60e51b8152602060048201526014602482015273566f74696e67206973206e6f742061637469766560601b60448201526064016104bc565b6008805460ff191690556040517f7a19ed057db79e3c2fa0b97a54b43bef4fce74b31bb6c01af514b9a18a7f70ab90600090a1565b6118b46121c3565b83516010146119055760405162461bcd60e51b815260206004820152601c60248201527f5277616e64616e204944206d757374206265203136206469676974730000000060448201526064016104bc565b60008351116119525760405162461bcd60e51b815260206004820152601960248201527846756c6c206e616d652063616e6e6f7420626520656d70747960381b60448201526064016104bc565b604051634d616c6560e01b6020820152602401604051602081830303815290604052805190602001208260405160200161198c91906127f8565b6040516020818303038152906040528051906020012014806119fd57506040516546656d616c6560d01b602082015260260160405160208183030381529060405280519060200120826040516020016119e591906127f8565b60405160208183030381529060405280519060200120145b611a495760405162461bcd60e51b815260206004820152601d60248201527f47656e646572206d757374206265204d616c65206f722046656d616c6500000060448201526064016104bc565b600284604051611a5991906127f8565b9081526040519081900360200190206003015460ff1615611acd5760405162461bcd60e51b815260206004820152602860248201527f566f7465722077697468207468697320494420697320616c726561647920726560448201526719da5cdd195c995960c21b60648201526084016104bc565b6001600160a01b03811660009081526003602052604090208054611af0906127be565b159050611b4b5760405162461bcd60e51b8152602060048201526024808201527f4164647265737320616c7265616479206c696e6b656420746f20616e6f7468656044820152631c88125160e21b60648201526084016104bc565b6040805160c081018252858152602081018590528082018490526001606082015260006080820181905260a08201529051600290611b8a9087906127f8565b90815260405190819003602001902081518190611ba79082612925565b5060208201516001820190611bbc9082612925565b5060408201516002820190611bd19082612925565b50606082015160038083018054608086015115156101000261ff00199415159490941661ffff19909116179290921790915560a0909201516004909101556001600160a01b038216600090815260209190915260409020611c328582612925565b50600580546001810182556000919091527f036b6384b5eca791c62761152d0c79bb0604c104a5fb6f4eb0703f3154bb3db001611c6f8582612925565b5083604051611c7e91906127f8565b60405180910390207fedb4aee7629b610f2d1efa29f794dd215eab9c3efb8bc2724112c061be05a21184604051611cb591906125e3565b60405180910390a250505050565b611ccb6121c3565b600281604051611cdb91906127f8565b9081526040519081900360200190206003015460ff16611d2f5760405162461bcd60e51b815260206004820152600f60248201526e159bdd195c881b9bdd08199bdd5b99608a1b60448201526064016104bc565b600281604051611d3f91906127f8565b9081526040519081900360200190206000611d5a828261226d565b611d6860018301600061226d565b611d7660028301600061226d565b5060038101805461ffff19169055600060049091018190555b600554811015611ea15781604051602001611daa91906127f8565b6040516020818303038152906040528051906020012060058281548110611dd357611dd36128c1565b90600052602060002001604051602001611ded91906129e5565b6040516020818303038152906040528051906020012003611e8f5760058054611e18906001906128a8565b81548110611e2857611e286128c1565b9060005260206000200160058281548110611e4557611e456128c1565b906000526020600020019081611e5b9190612a5b565b506005805480611e6d57611e6d612b36565b600190038181906000526020600020016000611e89919061226d565b90555050565b80611e998161288f565b915050611d8f565b5050565b611ead6121c3565b6001600160a01b038116611f125760405162461bcd60e51b815260206004820152602660248201527f4f776e61626c653a206e6577206f776e657220697320746865207a65726f206160448201526564647265737360d01b60648201526084016104bc565b611f1b8161221d565b50565b6060806060600080600080600288604051611f3991906127f8565b90815260200160405180910390206040518060c0016040529081600082018054611f62906127be565b80601f0160208091040260200160405190810160405280929190818152602001828054611f8e906127be565b8015611fdb5780601f10611fb057610100808354040283529160200191611fdb565b820191906000526020600020905b815481529060010190602001808311611fbe57829003601f168201915b50505050508152602001600182018054611ff4906127be565b80601f0160208091040260200160405190810160405280929190818152602001828054612020906127be565b801561206d5780601f106120425761010080835404028352916020019161206d565b820191906000526020600020905b81548152906001019060200180831161205057829003601f168201915b50505050508152602001600282018054612086906127be565b80601f01602080910402602001604051908101604052809291908181526020018280546120b2906127be565b80156120ff5780601f106120d4576101008083540402835291602001916120ff565b820191906000526020600020905b8154815290600101906020018083116120e257829003601f168201915b5050509183525050600382015460ff80821615156020808501919091526101009092041615156040808401919091526004909301546060928301528351908401519284015191840151608085015160a090950151919d939c50919a5090985091965090945092505050565b6002600154036121bc5760405162461bcd60e51b815260206004820152601f60248201527f5265656e7472616e637947756172643a207265656e7472616e742063616c6c0060448201526064016104bc565b6002600155565b6000546001600160a01b0316331461136d5760405162461bcd60e51b815260206004820181905260248201527f4f776e61626c653a2063616c6c6572206973206e6f7420746865206f776e657260448201526064016104bc565b600080546001600160a01b038381166001600160a01b0319831681178455604051919092169283917f8be0079c531659141344cd1fd0a4f28419497f9722a3daafe3b4186f6b6457e09190a35050565b508054612279906127be565b6000825580601f10612289575050565b601f016020900490600052602060002090810190611f1b91905b808211156122b757600081556001016122a3565b5090565b6000602082840312156122cd57600080fd5b5035919050565b600081518084526020808501945080840160005b83811015612304578151875295820195908201906001016122e8565b509495945050505050565b60005b8381101561232a578181015183820152602001612312565b50506000910152565b6000815180845261234b81602086016020860161230f565b601f01601f19169290920160200192915050565b600082825180855260208086019550808260051b84010181860160005b848110156123aa57601f19868403018952612398838351612333565b9884019892509083019060010161237c565b5090979650505050505050565b6080815260006123ca60808301876122d4565b82810360208401526123dc818761235f565b905082810360408401526123f0818661235f565b9050828103606084015261240481856122d4565b979650505050505050565b85815260a06020820152600061242860a0830187612333565b828103604084015261243a8187612333565b606084019590955250509015156080909101529392505050565b84815260806020820152600061246d6080830186612333565b828103604084015261247f8186612333565b91505082606083015295945050505050565b634e487b7160e01b600052604160045260246000fd5b600082601f8301126124b857600080fd5b813567ffffffffffffffff808211156124d3576124d3612491565b604051601f8301601f19908116603f011681019082821181831017156124fb576124fb612491565b8160405283815286602085880101111561251457600080fd5b836020870160208301376000602085830101528094505050505092915050565b60006020828403121561254657600080fd5b813567ffffffffffffffff81111561255d57600080fd5b612569848285016124a7565b949350505050565b60c08152600061258460c0830189612333565b82810360208401526125968189612333565b905082810360408401526125aa8188612333565b95151560608401525050911515608083015260a0909101529392505050565b6020815260006125dc602083018461235f565b9392505050565b6020815260006125dc6020830184612333565b80356001600160a01b038116811461260d57600080fd5b919050565b60006020828403121561262457600080fd5b6125dc826125f6565b8381526060602082015260006126466060830185612333565b9050826040830152949350505050565b60008060006060848603121561266b57600080fd5b833567ffffffffffffffff8082111561268357600080fd5b61268f878388016124a7565b945060208601359150808211156126a557600080fd5b6126b1878388016124a7565b935060408601359150808211156126c757600080fd5b506126d4868287016124a7565b9150509250925092565b600080604083850312156126f157600080fd5b82359150602083013567ffffffffffffffff81111561270f57600080fd5b61271b858286016124a7565b9150509250929050565b6000806000806080858703121561273b57600080fd5b843567ffffffffffffffff8082111561275357600080fd5b61275f888389016124a7565b9550602087013591508082111561277557600080fd5b612781888389016124a7565b9450604087013591508082111561279757600080fd5b506127a4878288016124a7565b9250506127b3606086016125f6565b905092959194509250565b600181811c908216806127d257607f821691505b6020821081036127f257634e487b7160e01b600052602260045260246000fd5b50919050565b6000825161280a81846020870161230f565b9190910192915050565b602080825260149082015273125b9d985b1a590818d85b991a59185d1948125160621b604082015260600190565b60208082526018908201527f43616e64696461746520646f6573206e6f742065786973740000000000000000604082015260600190565b634e487b7160e01b600052601160045260246000fd5b6000600182016128a1576128a1612879565b5060010190565b818103818111156128bb576128bb612879565b92915050565b634e487b7160e01b600052603260045260246000fd5b601f8211156107fe57600081815260208120601f850160051c810160208610156128fe5750805b601f850160051c820191505b8181101561291d5782815560010161290a565b505050505050565b815167ffffffffffffffff81111561293f5761293f612491565b6129538161294d84546127be565b846128d7565b602080601f83116001811461298857600084156129705750858301515b600019600386901b1c1916600185901b17855561291d565b600085815260208120601f198616915b828110156129b757888601518255948401946001909101908401612998565b50858210156129d55787850151600019600388901b60f8161c191681555b5050505050600190811b01905550565b60008083546129f3816127be565b60018281168015612a0b5760018114612a2057612a4f565b60ff1984168752821515830287019450612a4f565b8760005260208060002060005b85811015612a465781548a820152908401908201612a2d565b50505082870194505b50929695505050505050565b818103612a66575050565b612a7082546127be565b67ffffffffffffffff811115612a8857612a88612491565b612a968161294d84546127be565b6000601f821160018114612aca5760008315612ab25750848201545b600019600385901b1c1916600184901b178455612b2f565b600085815260209020601f19841690600086815260209020845b83811015612b045782860154825560019586019590910190602001612ae4565b5085831015612b225781850154600019600388901b60f8161c191681555b50505060018360011b0184555b5050505050565b634e487b7160e01b600052603160045260246000fdfea26469706673582212201f090c62a5fbc8f0ee0d5732e2088083c1a739e7ad7172ec16c170235a9e8e4964736f6c63430008130033",
  "linkReferences": {},
  "deployedLinkReferences": {}
}